{"contracts/ParkingReservation.sol":{"ParkingReservation":{"abi":[{"inputs":[],"stateMutability":"nonpayable","type":"constructor"},{"anonymous":false,"inputs":[{"indexed":true,"internalType":"uint256","name":"spotId","type":"uint256"},{"indexed":false,"internalType":"string","name":"location","type":"string"},{"indexed":false,"internalType":"uint256","name":"pricePerHour","type":"uint256"}],"name":"ParkingSpotAdded","type":"event"},{"anonymous":false,"inputs":[{"indexed":true,"internalType":"uint256","name":"reservationId","type":"uint256"}],"name":"ReservationCompleted","type":"event"},{"anonymous":false,"inputs":[{"indexed":true,"internalType":"uint256","name":"reservationId","type":"uint256"},{"indexed":true,"internalType":"address","name":"user","type":"address"},{"indexed":false,"internalType":"uint256","name":"spotId","type":"uint256"}],"name":"ReservationCreated","type":"event"},{"anonymous":false,"inputs":[{"indexed":true,"internalType":"address","name":"user","type":"address"},{"indexed":false,"internalType":"uint32","name":"userId","type":"uint32"},{"indexed":false,"internalType":"uint16","name":"creditScore","type":"uint16"}],"name":"UserRegistered","type":"event"},{"inputs":[{"internalType":"string","name":"location","type":"string"},{"internalType":"uint256","name":"pricePerHour","type":"uint256"}],"name":"addParkingSpot","outputs":[],"stateMutability":"nonpayable","type":"function"},{"inputs":[{"internalType":"uint256","name":"reservationId","type":"uint256"}],"name":"completeReservation","outputs":[],"stateMutability":"nonpayable","type":"function"},{"inputs":[],"name":"getStatistics","outputs":[{"internalType":"uint32","name":"_totalSpots","type":"uint32"},{"internalType":"uint32","name":"_totalReservations","type":"uint32"},{"internalType":"uint256","name":"_timestamp","type":"uint256"}],"stateMutability":"view","type":"function"},{"inputs":[{"internalType":"address","name":"userAddress","type":"address"}],"name":"getUserInfo","outputs":[{"internalType":"uint32","name":"userId","type":"uint32"},{"internalType":"uint16","name":"creditScore","type":"uint16"},{"internalType":"bool","name":"isRegistered","type":"bool"}],"stateMutability":"view","type":"function"},{"inputs":[{"internalType":"uint256","name":"spotId","type":"uint256"}],"name":"isSpotAvailable","outputs":[{"internalType":"bool","name":"available","type":"bool"}],"stateMutability":"view","type":"function"},{"inputs":[{"internalType":"uint256","name":"spotId","type":"uint256"},{"internalType":"uint256","name":"durationHours","type":"uint256"}],"name":"makeReservation","outputs":[],"stateMutability":"payable","type":"function"},{"inputs":[],"name":"owner","outputs":[{"internalType":"address","name":"","type":"address"}],"stateMutability":"view","type":"function"},{"inputs":[{"internalType":"uint256","name":"","type":"uint256"}],"name":"parkingSpots","outputs":[{"internalType":"string","name":"location","type":"string"},{"internalType":"uint256","name":"pricePerHour","type":"uint256"},{"internalType":"bool","name":"isAvailable","type":"bool"},{"internalType":"address","name":"spotOwner","type":"address"}],"stateMutability":"view","type":"function"},{"inputs":[{"internalType":"uint32","name":"userId","type":"uint32"},{"internalType":"uint16","name":"creditScore","type":"uint16"}],"name":"registerUser","outputs":[],"stateMutability":"nonpayable","type":"function"},{"inputs":[],"name":"reservationCounter","outputs":[{"internalType":"uint32","name":"","type":"uint32"}],"stateMutability":"view","type":"function"},{"inputs":[{"internalType":"uint256","name":"","type":"uint256"}],"name":"reservations","outputs":[{"internalType":"address","name":"user","type":"address"},{"internalType":"uint256","name":"spotId","type":"uint256"},{"internalType":"uint256","name":"startTime","type":"uint256"},{"internalType":"uint256","name":"endTime","type":"uint256"},{"internalType":"uint256","name":"totalPrice","type":"uint256"},{"internalType":"bool","name":"isCompleted","type":"bool"}],"stateMutability":"view","type":"function"},{"inputs":[],"name":"totalSpots","outputs":[{"internalType":"uint32","name":"","type":"uint32"}],"stateMutability":"view","type":"function"},{"inputs":[{"internalType":"address","name":"","type":"address"}],"name":"users","outputs":[{"internalType":"uint32","name":"userId","type":"uint32"},{"internalType":"uint16","name":"creditScore","type":"uint16"},{"internalType":"bool","name":"isRegistered","type":"bool"},{"internalType":"uint256","name":"registrationTime","type":"uint256"}],"stateMutability":"view","type":"function"}],"devdoc":{"details":"Standard Solidity implementation for Sepolia deployment","kind":"dev","methods":{"addParkingSpot(string,uint256)":{"params":{"location":"Parking spot location","pricePerHour":"Price per hour in wei"}},"completeReservation(uint256)":{"params":{"reservationId":"Reservation ID"}},"getStatistics()":{"returns":{"_timestamp":"Current timestamp","_totalReservations":"Total reservations","_totalSpots":"Total parking spots"}},"getUserInfo(address)":{"params":{"userAddress":"User address"},"returns":{"creditScore":"Credit score","isRegistered":"Registration status","userId":"User ID"}},"isSpotAvailable(uint256)":{"params":{"spotId":"Spot ID"},"returns":{"available":"Availability status"}},"makeReservation(uint256,uint256)":{"params":{"durationHours":"Duration in hours","spotId":"Parking spot ID"}},"registerUser(uint32,uint16)":{"params":{"creditScore":"Credit score (300-850)","userId":"User ID"}}},"title":"ParkingReservation","version":1},"evm":{"bytecode":{"linkReferences":{},"object":"608060405234801561000f575f80fd5b505f8054600160a01b600160e01b031933166001600160e01b031990911617905561110f8061003d5f395ff3fe6080604052600436106100bf575f3560e01c80638cf66f391161007c578063a87430ba11610057578063a87430ba14610342578063b37a87eb146103c5578063ba747e1e146103d8578063f5defcd3146103f7575f80fd5b80638cf66f39146102bb5780638da5cb5b146102ea5780638df7174314610320575f80fd5b8063067cf832146100c3578063156bdea11461015f57806321fa740714610196578063372d6b27146101b75780636386c1c7146101f65780636dea62c51461029c575b5f80fd5b3480156100ce575f80fd5b506101216100dd366004610d3e565b600360208190525f91825260409091208054600182015460028301549383015460048401546005909401546001600160a01b03909316949193919290919060ff1686565b604080516001600160a01b03909716875260208701959095529385019290925260608401526080830152151560a082015260c0015b60405180910390f35b34801561016a575f80fd5b505f5461018190600160c01b900463ffffffff1681565b60405163ffffffff9091168152602001610156565b3480156101a1575f80fd5b506101b56101b0366004610d69565b610426565b005b3480156101c2575f80fd5b505f546040805163ffffffff600160a01b840481168252600160c01b90930490921660208301524290820152606001610156565b348015610201575f80fd5b50610275610210366004610e18565b6001600160a01b03165f908152600260209081526040918290208251608081018452815463ffffffff8116808352640100000000820461ffff16948301859052600160301b90910460ff16151594820185905260019092015460609091015292909190565b6040805163ffffffff909416845261ffff9092166020840152151590820152606001610156565b3480156102a7575f80fd5b506101b56102b6366004610d3e565b610593565b3480156102c6575f80fd5b506102da6102d5366004610d3e565b610746565b6040519015158152602001610156565b3480156102f5575f80fd5b505f54610308906001600160a01b031681565b6040516001600160a01b039091168152602001610156565b34801561032b575f80fd5b505f5461018190600160a01b900463ffffffff1681565b34801561034d575f80fd5b5061039561035c366004610e18565b60026020525f90815260409020805460019091015463ffffffff821691640100000000810461ffff1691600160301b90910460ff169084565b6040805163ffffffff909516855261ffff9093166020850152901515918301919091526060820152608001610156565b6101b56103d3366004610e45565b6107ba565b3480156103e3575f80fd5b506101b56103f2366004610e65565b610b0e565b348015610402575f80fd5b50610416610411366004610d3e565b610c84565b6040516101569493929190610eed565b5f546001600160a01b031633146104705760405162461bcd60e51b81526020600482015260096024820152682737ba1037bbb732b960b91b60448201526064015b60405180910390fd5b5f8054600160a01b900463ffffffff1690601461048c83610f38565b82546101009290920a63ffffffff81810219909316918316021790915560408051608081018252858152602080820186905260018284018190523360608401525f8054600160a01b900490951685529052912081519192509081906104f19082610fde565b5060208201516001820155604080830151600290920180546060909401516001600160a81b0319909416921515610100600160a81b031916929092176101006001600160a01b03909416939093029290921790555f549051600160a01b90910463ffffffff16907f2a4d7c20d0e0546fea12c8aae08d00efce1d9dbceb9d4b06f69bb214783edded90610587908590859061109e565b60405180910390a25050565b5f811180156105b057505f54600160c01b900463ffffffff168111155b6105f55760405162461bcd60e51b8152602060048201526016602482015275125b9d985b1a59081c995cd95c9d985d1a5bdb88125160521b6044820152606401610467565b5f81815260036020526040902080546001600160a01b031633146106525760405162461bcd60e51b81526020600482015260146024820152732737ba103cb7bab9103932b9b2b93b30ba34b7b760611b6044820152606401610467565b600581015460ff161561069b5760405162461bcd60e51b8152602060048201526011602482015270105b1c9958591e4818dbdb5c1b195d1959607a1b6044820152606401610467565b600581018054600160ff19918216811790925581830180545f90815260208490526040808220600290810180549095169095179093559054815281812090920154600484015491516101009091046001600160a01b0316926108fc831502929190818181858888f19350505050158015610717573d5f803e3d5ffd5b5060405182907fed4cc2085fc19cdf8cedade7c5dc389eb82f87e5dff2fd2b253a3847aef85156905f90a25050565b5f808211801561076457505f54600160a01b900463ffffffff168211155b6107a25760405162461bcd60e51b815260206004820152600f60248201526e125b9d985b1a59081cdc1bdd081251608a1b6044820152606401610467565b505f9081526001602052604090206002015460ff1690565b335f90815260026020526040902054600160301b900460ff166108105760405162461bcd60e51b815260206004820152600e60248201526d139bdd081c9959da5cdd195c995960921b6044820152606401610467565b5f8211801561082d57505f54600160a01b900463ffffffff168211155b61086b5760405162461bcd60e51b815260206004820152600f60248201526e125b9d985b1a59081cdc1bdd081251608a1b6044820152606401610467565b5f8281526001602052604090206002015460ff166108c05760405162461bcd60e51b815260206004820152601260248201527153706f74206e6f7420617661696c61626c6560701b6044820152606401610467565b5f81116109025760405162461bcd60e51b815260206004820152601060248201526f24b73b30b634b210323ab930ba34b7b760811b6044820152606401610467565b5f8281526001602081905260408220015461091e9083906110bf565b9050803410156109675760405162461bcd60e51b8152602060048201526014602482015273125b9cdd59999a58da595b9d081c185e5b595b9d60621b6044820152606401610467565b5f8054600160c01b900463ffffffff1690601861098383610f38565b91906101000a81548163ffffffff021916908363ffffffff160217905550506040518060c00160405280336001600160a01b0316815260200184815260200142815260200183610e106109d691906110bf565b6109e090426110dc565b815260208082018490525f6040928301819052805463ffffffff600160c01b9091041681526003808352838220855181546001600160a01b039091166001600160a01b031990911617815585840151600182810191909155868601516002808401919091556060880151938301939093556080870151600483015560a0909601516005909101805491151560ff199283161790558883529490925291909120018054909116905534811015610ac457336108fc610a9d83346110ef565b6040518115909202915f818181858888f19350505050158015610ac2573d5f803e3d5ffd5b505b5f546040518481523391600160c01b900463ffffffff16907f24c83a02ab404799eb65cd159ac9266aabce842e658c2ecdd12173c403d4d3539060200160405180910390a3505050565b335f90815260026020526040902054600160301b900460ff1615610b695760405162461bcd60e51b8152602060048201526012602482015271105b1c9958591e481c9959da5cdd195c995960721b6044820152606401610467565b61012c8161ffff1610158015610b8557506103528161ffff1611155b610bc85760405162461bcd60e51b8152602060048201526014602482015273496e76616c6964206372656469742073636f726560601b6044820152606401610467565b6040805160808101825263ffffffff84811680835261ffff858116602080860182815260018789018181524260608a01908152335f818152600287528c90209a518b54955193511515600160301b0266ff00000000000019949099166401000000000265ffffffffffff199096169a169990991793909317169490941787555195909201949094558451918252810192909252917fa0a7336262b5b23b760ead1da5a4635d380f5215b36442d2d710fa93f36ce7539101610587565b60016020525f9081526040902080548190610c9e90610f5a565b80601f0160208091040260200160405190810160405280929190818152602001828054610cca90610f5a565b8015610d155780601f10610cec57610100808354040283529160200191610d15565b820191905f5260205f20905b815481529060010190602001808311610cf857829003601f168201915b50505050600183015460029093015491929160ff8116915061010090046001600160a01b031684565b5f60208284031215610d4e575f80fd5b5035919050565b634e487b7160e01b5f52604160045260245ffd5b5f8060408385031215610d7a575f80fd5b823567ffffffffffffffff80821115610d91575f80fd5b818501915085601f830112610da4575f80fd5b813581811115610db657610db6610d55565b604051601f8201601f19908116603f01168101908382118183101715610dde57610dde610d55565b81604052828152886020848701011115610df6575f80fd5b826020860160208301375f602093820184015298969091013596505050505050565b5f60208284031215610e28575f80fd5b81356001600160a01b0381168114610e3e575f80fd5b9392505050565b5f8060408385031215610e56575f80fd5b50508035926020909101359150565b5f8060408385031215610e76575f80fd5b823563ffffffff81168114610e89575f80fd5b9150602083013561ffff81168114610e9f575f80fd5b809150509250929050565b5f81518084525f5b81811015610ece57602081850181015186830182015201610eb2565b505f602082860101526020601f19601f83011685010191505092915050565b608081525f610eff6080830187610eaa565b60208301959095525091151560408301526001600160a01b0316606090910152919050565b634e487b7160e01b5f52601160045260245ffd5b5f63ffffffff808316818103610f5057610f50610f24565b6001019392505050565b600181811c90821680610f6e57607f821691505b602082108103610f8c57634e487b7160e01b5f52602260045260245ffd5b50919050565b601f821115610fd957805f5260205f20601f840160051c81016020851015610fb75750805b601f840160051c820191505b81811015610fd6575f8155600101610fc3565b50505b505050565b815167ffffffffffffffff811115610ff857610ff8610d55565b61100c816110068454610f5a565b84610f92565b602080601f83116001811461103f575f84156110285750858301515b5f19600386901b1c1916600185901b178555611096565b5f85815260208120601f198616915b8281101561106d5788860151825594840194600190910190840161104e565b508582101561108a57878501515f19600388901b60f8161c191681555b505060018460011b0185555b505050505050565b604081525f6110b06040830185610eaa565b90508260208301529392505050565b80820281158282048414176110d6576110d6610f24565b92915050565b808201808211156110d6576110d6610f24565b818103818111156110d6576110d6610f2456fea164736f6c6343000818000a","opcodes":"PUSH1 0x80 PUSH1 0x40 MSTORE CALLVALUE DUP1 ISZERO PUSH2 0xF JUMPI PUSH0 DUP1 REVERT JUMPDEST POP PUSH0 DUP1 SLOAD PUSH1 0x1 PUSH1 0xA0 SHL PUSH1 0x1 PUSH1 0xE0 SHL SUB NOT CALLER AND PUSH1 0x1 PUSH1 0x1 PUSH1 0xE0 SHL SUB NOT SWAP1 SWAP2 AND OR SWAP1 SSTORE PUSH2 0x110F DUP1 PUSH2 0x3D PUSH0 CODECOPY PUSH0 RETURN INVALID PUSH1 0x80 PUSH1 0x40 MSTORE PUSH1 0x4 CALLDATASIZE LT PUSH2 0xBF JUMPI PUSH0 CALLDATALOAD PUSH1 0xE0 SHR DUP1 PUSH4 0x8CF66F39 GT PUSH2 0x7C JUMPI DUP1 PUSH4 0xA87430BA GT PUSH2 0x57 JUMPI DUP1 PUSH4 0xA87430BA EQ PUSH2 0x342 JUMPI DUP1 PUSH4 0xB37A87EB EQ PUSH2 0x3C5 JUMPI DUP1 PUSH4 0xBA747E1E EQ PUSH2 0x3D8 JUMPI DUP1 PUSH4 0xF5DEFCD3 EQ PUSH2 0x3F7 JUMPI PUSH0 DUP1 REVERT JUMPDEST DUP1 PUSH4 0x8CF66F39 EQ PUSH2 0x2BB JUMPI DUP1 PUSH4 0x8DA5CB5B EQ PUSH2 0x2EA JUMPI DUP1 PUSH4 0x8DF71743 EQ PUSH2 0x320 JUMPI PUSH0 DUP1 REVERT JUMPDEST DUP1 PUSH4 0x67CF832 EQ PUSH2 0xC3 JUMPI DUP1 PUSH4 0x156BDEA1 EQ PUSH2 0x15F JUMPI DUP1 PUSH4 0x21FA7407 EQ PUSH2 0x196 JUMPI DUP1 PUSH4 0x372D6B27 EQ PUSH2 0x1B7 JUMPI DUP1 PUSH4 0x6386C1C7 EQ PUSH2 0x1F6 JUMPI DUP1 PUSH4 0x6DEA62C5 EQ PUSH2 0x29C JUMPI JUMPDEST PUSH0 DUP1 REVERT JUMPDEST CALLVALUE DUP1 ISZERO PUSH2 0xCE JUMPI PUSH0 DUP1 REVERT JUMPDEST POP PUSH2 0x121 PUSH2 0xDD CALLDATASIZE PUSH1 0x4 PUSH2 0xD3E JUMP JUMPDEST PUSH1 0x3 PUSH1 0x20 DUP2 SWAP1 MSTORE PUSH0 SWAP2 DUP3 MSTORE PUSH1 0x40 SWAP1 SWAP2 KECCAK256 DUP1 SLOAD PUSH1 0x1 DUP3 ADD SLOAD PUSH1 0x2 DUP4 ADD SLOAD SWAP4 DUP4 ADD SLOAD PUSH1 0x4 DUP5 ADD SLOAD PUSH1 0x5 SWAP1 SWAP5 ADD SLOAD PUSH1 0x1 PUSH1 0x1 PUSH1 0xA0 SHL SUB SWAP1 SWAP4 AND SWAP5 SWAP2 SWAP4 SWAP2 SWAP3 SWAP1 SWAP2 SWAP1 PUSH1 0xFF AND DUP7 JUMP JUMPDEST PUSH1 0x40 DUP1 MLOAD PUSH1 0x1 PUSH1 0x1 PUSH1 0xA0 SHL SUB SWAP1 SWAP8 AND DUP8 MSTORE PUSH1 0x20 DUP8 ADD SWAP6 SWAP1 SWAP6 MSTORE SWAP4 DUP6 ADD SWAP3 SWAP1 SWAP3 MSTORE PUSH1 0x60 DUP5 ADD MSTORE PUSH1 0x80 DUP4 ADD MSTORE ISZERO ISZERO PUSH1 0xA0 DUP3 ADD MSTORE PUSH1 0xC0 ADD JUMPDEST PUSH1 0x40 MLOAD DUP1 SWAP2 SUB SWAP1 RETURN JUMPDEST CALLVALUE DUP1 ISZERO PUSH2 0x16A JUMPI PUSH0 DUP1 REVERT JUMPDEST POP PUSH0 SLOAD PUSH2 0x181 SWAP1 PUSH1 0x1 PUSH1 0xC0 SHL SWAP1 DIV PUSH4 0xFFFFFFFF AND DUP2 JUMP JUMPDEST PUSH1 0x40 MLOAD PUSH4 0xFFFFFFFF SWAP1 SWAP2 AND DUP2 MSTORE PUSH1 0x20 ADD PUSH2 0x156 JUMP JUMPDEST CALLVALUE DUP1 ISZERO PUSH2 0x1A1 JUMPI PUSH0 DUP1 REVERT JUMPDEST POP PUSH2 0x1B5 PUSH2 0x1B0 CALLDATASIZE PUSH1 0x4 PUSH2 0xD69 JUMP JUMPDEST PUSH2 0x426 JUMP JUMPDEST STOP JUMPDEST CALLVALUE DUP1 ISZERO PUSH2 0x1C2 JUMPI PUSH0 DUP1 REVERT JUMPDEST POP PUSH0 SLOAD PUSH1 0x40 DUP1 MLOAD PUSH4 0xFFFFFFFF PUSH1 0x1 PUSH1 0xA0 SHL DUP5 DIV DUP2 AND DUP3 MSTORE PUSH1 0x1 PUSH1 0xC0 SHL SWAP1 SWAP4 DIV SWAP1 SWAP3 AND PUSH1 0x20 DUP4 ADD MSTORE TIMESTAMP SWAP1 DUP3 ADD MSTORE PUSH1 0x60 ADD PUSH2 0x156 JUMP JUMPDEST CALLVALUE DUP1 ISZERO PUSH2 0x201 JUMPI PUSH0 DUP1 REVERT JUMPDEST POP PUSH2 0x275 PUSH2 0x210 CALLDATASIZE PUSH1 0x4 PUSH2 0xE18 JUMP JUMPDEST PUSH1 0x1 PUSH1 0x1 PUSH1 0xA0 SHL SUB AND PUSH0 SWAP1 DUP2 MSTORE PUSH1 0x2 PUSH1 0x20 SWAP1 DUP2 MSTORE PUSH1 0x40 SWAP2 DUP3 SWAP1 KECCAK256 DUP3 MLOAD PUSH1 0x80 DUP2 ADD DUP5 MSTORE DUP2 SLOAD PUSH4 0xFFFFFFFF DUP2 AND DUP1 DUP4 MSTORE PUSH5 0x100000000 DUP3 DIV PUSH2 0xFFFF AND SWAP5 DUP4 ADD DUP6 SWAP1 MSTORE PUSH1 0x1 PUSH1 0x30 SHL SWAP1 SWAP2 DIV PUSH1 0xFF AND ISZERO ISZERO SWAP5 DUP3 ADD DUP6 SWAP1 MSTORE PUSH1 0x1 SWAP1 SWAP3 ADD SLOAD PUSH1 0x60 SWAP1 SWAP2 ADD MSTORE SWAP3 SWAP1 SWAP2 SWAP1 JUMP JUMPDEST PUSH1 0x40 DUP1 MLOAD PUSH4 0xFFFFFFFF SWAP1 SWAP5 AND DUP5 MSTORE PUSH2 0xFFFF SWAP1 SWAP3 AND PUSH1 0x20 DUP5 ADD MSTORE ISZERO ISZERO SWAP1 DUP3 ADD MSTORE PUSH1 0x60 ADD PUSH2 0x156 JUMP JUMPDEST CALLVALUE DUP1 ISZERO PUSH2 0x2A7 JUMPI PUSH0 DUP1 REVERT JUMPDEST POP PUSH2 0x1B5 PUSH2 0x2B6 CALLDATASIZE PUSH1 0x4 PUSH2 0xD3E JUMP JUMPDEST PUSH2 0x593 JUMP JUMPDEST CALLVALUE DUP1 ISZERO PUSH2 0x2C6 JUMPI PUSH0 DUP1 REVERT JUMPDEST POP PUSH2 0x2DA PUSH2 0x2D5 CALLDATASIZE PUSH1 0x4 PUSH2 0xD3E JUMP JUMPDEST PUSH2 0x746 JUMP JUMPDEST PUSH1 0x40 MLOAD SWAP1 ISZERO ISZERO DUP2 MSTORE PUSH1 0x20 ADD PUSH2 0x156 JUMP JUMPDEST CALLVALUE DUP1 ISZERO PUSH2 0x2F5 JUMPI PUSH0 DUP1 REVERT JUMPDEST POP PUSH0 SLOAD PUSH2 0x308 SWAP1 PUSH1 0x1 PUSH1 0x1 PUSH1 0xA0 SHL SUB AND DUP2 JUMP JUMPDEST PUSH1 0x40 MLOAD PUSH1 0x1 PUSH1 0x1 PUSH1 0xA0 SHL SUB SWAP1 SWAP2 AND DUP2 MSTORE PUSH1 0x20 ADD PUSH2 0x156 JUMP JUMPDEST CALLVALUE DUP1 ISZERO PUSH2 0x32B JUMPI PUSH0 DUP1 REVERT JUMPDEST POP PUSH0 SLOAD PUSH2 0x181 SWAP1 PUSH1 0x1 PUSH1 0xA0 SHL SWAP1 DIV PUSH4 0xFFFFFFFF AND DUP2 JUMP JUMPDEST CALLVALUE DUP1 ISZERO PUSH2 0x34D JUMPI PUSH0 DUP1 REVERT JUMPDEST POP PUSH2 0x395 PUSH2 0x35C CALLDATASIZE PUSH1 0x4 PUSH2 0xE18 JUMP JUMPDEST PUSH1 0x2 PUSH1 0x20 MSTORE PUSH0 SWAP1 DUP2 MSTORE PUSH1 0x40 SWAP1 KECCAK256 DUP1 SLOAD PUSH1 0x1 SWAP1 SWAP2 ADD SLOAD PUSH4 0xFFFFFFFF DUP3 AND SWAP2 PUSH5 0x100000000 DUP2 DIV PUSH2 0xFFFF AND SWAP2 PUSH1 0x1 PUSH1 0x30 SHL SWAP1 SWAP2 DIV PUSH1 0xFF AND SWAP1 DUP5 JUMP JUMPDEST PUSH1 0x40 DUP1 MLOAD PUSH4 0xFFFFFFFF SWAP1 SWAP6 AND DUP6 MSTORE PUSH2 0xFFFF SWAP1 SWAP4 AND PUSH1 0x20 DUP6 ADD MSTORE SWAP1 ISZERO ISZERO SWAP2 DUP4 ADD SWAP2 SWAP1 SWAP2 MSTORE PUSH1 0x60 DUP3 ADD MSTORE PUSH1 0x80 ADD PUSH2 0x156 JUMP JUMPDEST PUSH2 0x1B5 PUSH2 0x3D3 CALLDATASIZE PUSH1 0x4 PUSH2 0xE45 JUMP JUMPDEST PUSH2 0x7BA JUMP JUMPDEST CALLVALUE DUP1 ISZERO PUSH2 0x3E3 JUMPI PUSH0 DUP1 REVERT JUMPDEST POP PUSH2 0x1B5 PUSH2 0x3F2 CALLDATASIZE PUSH1 0x4 PUSH2 0xE65 JUMP JUMPDEST PUSH2 0xB0E JUMP JUMPDEST CALLVALUE DUP1 ISZERO PUSH2 0x402 JUMPI PUSH0 DUP1 REVERT JUMPDEST POP PUSH2 0x416 PUSH2 0x411 CALLDATASIZE PUSH1 0x4 PUSH2 0xD3E JUMP JUMPDEST PUSH2 0xC84 JUMP JUMPDEST PUSH1 0x40 MLOAD PUSH2 0x156 SWAP5 SWAP4 SWAP3 SWAP2 SWAP1 PUSH2 0xEED JUMP JUMPDEST PUSH0 SLOAD PUSH1 0x1 PUSH1 0x1 PUSH1 0xA0 SHL SUB AND CALLER EQ PUSH2 0x470 JUMPI PUSH1 0x40 MLOAD PUSH3 0x461BCD PUSH1 0xE5 SHL DUP2 MSTORE PUSH1 0x20 PUSH1 0x4 DUP3 ADD MSTORE PUSH1 0x9 PUSH1 0x24 DUP3 ADD MSTORE PUSH9 0x2737BA1037BBB732B9 PUSH1 0xB9 SHL PUSH1 0x44 DUP3 ADD MSTORE PUSH1 0x64 ADD JUMPDEST PUSH1 0x40 MLOAD DUP1 SWAP2 SUB SWAP1 REVERT JUMPDEST PUSH0 DUP1 SLOAD PUSH1 0x1 PUSH1 0xA0 SHL SWAP1 DIV PUSH4 0xFFFFFFFF AND SWAP1 PUSH1 0x14 PUSH2 0x48C DUP4 PUSH2 0xF38 JUMP JUMPDEST DUP3 SLOAD PUSH2 0x100 SWAP3 SWAP1 SWAP3 EXP PUSH4 0xFFFFFFFF DUP2 DUP2 MUL NOT SWAP1 SWAP4 AND SWAP2 DUP4 AND MUL OR SWAP1 SWAP2 SSTORE PUSH1 0x40 DUP1 MLOAD PUSH1 0x80 DUP2 ADD DUP3 MSTORE DUP6 DUP2 MSTORE PUSH1 0x20 DUP1 DUP3 ADD DUP7 SWAP1 MSTORE PUSH1 0x1 DUP3 DUP5 ADD DUP2 SWAP1 MSTORE CALLER PUSH1 0x60 DUP5 ADD MSTORE PUSH0 DUP1 SLOAD PUSH1 0x1 PUSH1 0xA0 SHL SWAP1 DIV SWAP1 SWAP6 AND DUP6 MSTORE SWAP1 MSTORE SWAP2 KECCAK256 DUP2 MLOAD SWAP2 SWAP3 POP SWAP1 DUP2 SWAP1 PUSH2 0x4F1 SWAP1 DUP3 PUSH2 0xFDE JUMP JUMPDEST POP PUSH1 0x20 DUP3 ADD MLOAD PUSH1 0x1 DUP3 ADD SSTORE PUSH1 0x40 DUP1 DUP4 ADD MLOAD PUSH1 0x2 SWAP1 SWAP3 ADD DUP1 SLOAD PUSH1 0x60 SWAP1 SWAP5 ADD MLOAD PUSH1 0x1 PUSH1 0x1 PUSH1 0xA8 SHL SUB NOT SWAP1 SWAP5 AND SWAP3 ISZERO ISZERO PUSH2 0x100 PUSH1 0x1 PUSH1 0xA8 SHL SUB NOT AND SWAP3 SWAP1 SWAP3 OR PUSH2 0x100 PUSH1 0x1 PUSH1 0x1 PUSH1 0xA0 SHL SUB SWAP1 SWAP5 AND SWAP4 SWAP1 SWAP4 MUL SWAP3 SWAP1 SWAP3 OR SWAP1 SSTORE PUSH0 SLOAD SWAP1 MLOAD PUSH1 0x1 PUSH1 0xA0 SHL SWAP1 SWAP2 DIV PUSH4 0xFFFFFFFF AND SWAP1 PUSH32 0x2A4D7C20D0E0546FEA12C8AAE08D00EFCE1D9DBCEB9D4B06F69BB214783EDDED SWAP1 PUSH2 0x587 SWAP1 DUP6 SWAP1 DUP6 SWAP1 PUSH2 0x109E JUMP JUMPDEST PUSH1 0x40 MLOAD DUP1 SWAP2 SUB SWAP1 LOG2 POP POP JUMP JUMPDEST PUSH0 DUP2 GT DUP1 ISZERO PUSH2 0x5B0 JUMPI POP PUSH0 SLOAD PUSH1 0x1 PUSH1 0xC0 SHL SWAP1 DIV PUSH4 0xFFFFFFFF AND DUP2 GT ISZERO JUMPDEST PUSH2 0x5F5 JUMPI PUSH1 0x40 MLOAD PUSH3 0x461BCD PUSH1 0xE5 SHL DUP2 MSTORE PUSH1 0x20 PUSH1 0x4 DUP3 ADD MSTORE PUSH1 0x16 PUSH1 0x24 DUP3 ADD MSTORE PUSH22 0x125B9D985B1A59081C995CD95C9D985D1A5BDB881251 PUSH1 0x52 SHL PUSH1 0x44 DUP3 ADD MSTORE PUSH1 0x64 ADD PUSH2 0x467 JUMP JUMPDEST PUSH0 DUP2 DUP2 MSTORE PUSH1 0x3 PUSH1 0x20 MSTORE PUSH1 0x40 SWAP1 KECCAK256 DUP1 SLOAD PUSH1 0x1 PUSH1 0x1 PUSH1 0xA0 SHL SUB AND CALLER EQ PUSH2 0x652 JUMPI PUSH1 0x40 MLOAD PUSH3 0x461BCD PUSH1 0xE5 SHL DUP2 MSTORE PUSH1 0x20 PUSH1 0x4 DUP3 ADD MSTORE PUSH1 0x14 PUSH1 0x24 DUP3 ADD MSTORE PUSH20 0x2737BA103CB7BAB9103932B9B2B93B30BA34B7B7 PUSH1 0x61 SHL PUSH1 0x44 DUP3 ADD MSTORE PUSH1 0x64 ADD PUSH2 0x467 JUMP JUMPDEST PUSH1 0x5 DUP2 ADD SLOAD PUSH1 0xFF AND ISZERO PUSH2 0x69B JUMPI PUSH1 0x40 MLOAD PUSH3 0x461BCD PUSH1 0xE5 SHL DUP2 MSTORE PUSH1 0x20 PUSH1 0x4 DUP3 ADD MSTORE PUSH1 0x11 PUSH1 0x24 DUP3 ADD MSTORE PUSH17 0x105B1C9958591E4818DBDB5C1B195D1959 PUSH1 0x7A SHL PUSH1 0x44 DUP3 ADD MSTORE PUSH1 0x64 ADD PUSH2 0x467 JUMP JUMPDEST PUSH1 0x5 DUP2 ADD DUP1 SLOAD PUSH1 0x1 PUSH1 0xFF NOT SWAP2 DUP3 AND DUP2 OR SWAP1 SWAP3 SSTORE DUP2 DUP4 ADD DUP1 SLOAD PUSH0 SWAP1 DUP2 MSTORE PUSH1 0x20 DUP5 SWAP1 MSTORE PUSH1 0x40 DUP1 DUP3 KECCAK256 PUSH1 0x2 SWAP1 DUP2 ADD DUP1 SLOAD SWAP1 SWAP6 AND SWAP1 SWAP6 OR SWAP1 SWAP4 SSTORE SWAP1 SLOAD DUP2 MSTORE DUP2 DUP2 KECCAK256 SWAP1 SWAP3 ADD SLOAD PUSH1 0x4 DUP5 ADD SLOAD SWAP2 MLOAD PUSH2 0x100 SWAP1 SWAP2 DIV PUSH1 0x1 PUSH1 0x1 PUSH1 0xA0 SHL SUB AND SWAP3 PUSH2 0x8FC DUP4 ISZERO MUL SWAP3 SWAP2 SWAP1 DUP2 DUP2 DUP2 DUP6 DUP9 DUP9 CALL SWAP4 POP POP POP POP ISZERO DUP1 ISZERO PUSH2 0x717 JUMPI RETURNDATASIZE PUSH0 DUP1 RETURNDATACOPY RETURNDATASIZE PUSH0 REVERT JUMPDEST POP PUSH1 0x40 MLOAD DUP3 SWAP1 PUSH32 0xED4CC2085FC19CDF8CEDADE7C5DC389EB82F87E5DFF2FD2B253A3847AEF85156 SWAP1 PUSH0 SWAP1 LOG2 POP POP JUMP JUMPDEST PUSH0 DUP1 DUP3 GT DUP1 ISZERO PUSH2 0x764 JUMPI POP PUSH0 SLOAD PUSH1 0x1 PUSH1 0xA0 SHL SWAP1 DIV PUSH4 0xFFFFFFFF AND DUP3 GT ISZERO JUMPDEST PUSH2 0x7A2 JUMPI PUSH1 0x40 MLOAD PUSH3 0x461BCD PUSH1 0xE5 SHL DUP2 MSTORE PUSH1 0x20 PUSH1 0x4 DUP3 ADD MSTORE PUSH1 0xF PUSH1 0x24 DUP3 ADD MSTORE PUSH15 0x125B9D985B1A59081CDC1BDD081251 PUSH1 0x8A SHL PUSH1 0x44 DUP3 ADD MSTORE PUSH1 0x64 ADD PUSH2 0x467 JUMP JUMPDEST POP PUSH0 SWAP1 DUP2 MSTORE PUSH1 0x1 PUSH1 0x20 MSTORE PUSH1 0x40 SWAP1 KECCAK256 PUSH1 0x2 ADD SLOAD PUSH1 0xFF AND SWAP1 JUMP JUMPDEST CALLER PUSH0 SWAP1 DUP2 MSTORE PUSH1 0x2 PUSH1 0x20 MSTORE PUSH1 0x40 SWAP1 KECCAK256 SLOAD PUSH1 0x1 PUSH1 0x30 SHL SWAP1 DIV PUSH1 0xFF AND PUSH2 0x810 JUMPI PUSH1 0x40 MLOAD PUSH3 0x461BCD PUSH1 0xE5 SHL DUP2 MSTORE PUSH1 0x20 PUSH1 0x4 DUP3 ADD MSTORE PUSH1 0xE PUSH1 0x24 DUP3 ADD MSTORE PUSH14 0x139BDD081C9959DA5CDD195C9959 PUSH1 0x92 SHL PUSH1 0x44 DUP3 ADD MSTORE PUSH1 0x64 ADD PUSH2 0x467 JUMP JUMPDEST PUSH0 DUP3 GT DUP1 ISZERO PUSH2 0x82D JUMPI POP PUSH0 SLOAD PUSH1 0x1 PUSH1 0xA0 SHL SWAP1 DIV PUSH4 0xFFFFFFFF AND DUP3 GT ISZERO JUMPDEST PUSH2 0x86B JUMPI PUSH1 0x40 MLOAD PUSH3 0x461BCD PUSH1 0xE5 SHL DUP2 MSTORE PUSH1 0x20 PUSH1 0x4 DUP3 ADD MSTORE PUSH1 0xF PUSH1 0x24 DUP3 ADD MSTORE PUSH15 0x125B9D985B1A59081CDC1BDD081251 PUSH1 0x8A SHL PUSH1 0x44 DUP3 ADD MSTORE PUSH1 0x64 ADD PUSH2 0x467 JUMP JUMPDEST PUSH0 DUP3 DUP2 MSTORE PUSH1 0x1 PUSH1 0x20 MSTORE PUSH1 0x40 SWAP1 KECCAK256 PUSH1 0x2 ADD SLOAD PUSH1 0xFF AND PUSH2 0x8C0 JUMPI PUSH1 0x40 MLOAD PUSH3 0x461BCD PUSH1 0xE5 SHL DUP2 MSTORE PUSH1 0x20 PUSH1 0x4 DUP3 ADD MSTORE PUSH1 0x12 PUSH1 0x24 DUP3 ADD MSTORE PUSH18 0x53706F74206E6F7420617661696C61626C65 PUSH1 0x70 SHL PUSH1 0x44 DUP3 ADD MSTORE PUSH1 0x64 ADD PUSH2 0x467 JUMP JUMPDEST PUSH0 DUP2 GT PUSH2 0x902 JUMPI PUSH1 0x40 MLOAD PUSH3 0x461BCD PUSH1 0xE5 SHL DUP2 MSTORE PUSH1 0x20 PUSH1 0x4 DUP3 ADD MSTORE PUSH1 0x10 PUSH1 0x24 DUP3 ADD MSTORE PUSH16 0x24B73B30B634B210323AB930BA34B7B7 PUSH1 0x81 SHL PUSH1 0x44 DUP3 ADD MSTORE PUSH1 0x64 ADD PUSH2 0x467 JUMP JUMPDEST PUSH0 DUP3 DUP2 MSTORE PUSH1 0x1 PUSH1 0x20 DUP2 SWAP1 MSTORE PUSH1 0x40 DUP3 KECCAK256 ADD SLOAD PUSH2 0x91E SWAP1 DUP4 SWAP1 PUSH2 0x10BF JUMP JUMPDEST SWAP1 POP DUP1 CALLVALUE LT ISZERO PUSH2 0x967 JUMPI PUSH1 0x40 MLOAD PUSH3 0x461BCD PUSH1 0xE5 SHL DUP2 MSTORE PUSH1 0x20 PUSH1 0x4 DUP3 ADD MSTORE PUSH1 0x14 PUSH1 0x24 DUP3 ADD MSTORE PUSH20 0x125B9CDD59999A58DA595B9D081C185E5B595B9D PUSH1 0x62 SHL PUSH1 0x44 DUP3 ADD MSTORE PUSH1 0x64 ADD PUSH2 0x467 JUMP JUMPDEST PUSH0 DUP1 SLOAD PUSH1 0x1 PUSH1 0xC0 SHL SWAP1 DIV PUSH4 0xFFFFFFFF AND SWAP1 PUSH1 0x18 PUSH2 0x983 DUP4 PUSH2 0xF38 JUMP JUMPDEST SWAP2 SWAP1 PUSH2 0x100 EXP DUP2 SLOAD DUP2 PUSH4 0xFFFFFFFF MUL NOT AND SWAP1 DUP4 PUSH4 0xFFFFFFFF AND MUL OR SWAP1 SSTORE POP POP PUSH1 0x40 MLOAD DUP1 PUSH1 0xC0 ADD PUSH1 0x40 MSTORE DUP1 CALLER PUSH1 0x1 PUSH1 0x1 PUSH1 0xA0 SHL SUB AND DUP2 MSTORE PUSH1 0x20 ADD DUP5 DUP2 MSTORE PUSH1 0x20 ADD TIMESTAMP DUP2 MSTORE PUSH1 0x20 ADD DUP4 PUSH2 0xE10 PUSH2 0x9D6 SWAP2 SWAP1 PUSH2 0x10BF JUMP JUMPDEST PUSH2 0x9E0 SWAP1 TIMESTAMP PUSH2 0x10DC JUMP JUMPDEST DUP2 MSTORE PUSH1 0x20 DUP1 DUP3 ADD DUP5 SWAP1 MSTORE PUSH0 PUSH1 0x40 SWAP3 DUP4 ADD DUP2 SWAP1 MSTORE DUP1 SLOAD PUSH4 0xFFFFFFFF PUSH1 0x1 PUSH1 0xC0 SHL SWAP1 SWAP2 DIV AND DUP2 MSTORE PUSH1 0x3 DUP1 DUP4 MSTORE DUP4 DUP3 KECCAK256 DUP6 MLOAD DUP2 SLOAD PUSH1 0x1 PUSH1 0x1 PUSH1 0xA0 SHL SUB SWAP1 SWAP2 AND PUSH1 0x1 PUSH1 0x1 PUSH1 0xA0 SHL SUB NOT SWAP1 SWAP2 AND OR DUP2 SSTORE DUP6 DUP5 ADD MLOAD PUSH1 0x1 DUP3 DUP2 ADD SWAP2 SWAP1 SWAP2 SSTORE DUP7 DUP7 ADD MLOAD PUSH1 0x2 DUP1 DUP5 ADD SWAP2 SWAP1 SWAP2 SSTORE PUSH1 0x60 DUP9 ADD MLOAD SWAP4 DUP4 ADD SWAP4 SWAP1 SWAP4 SSTORE PUSH1 0x80 DUP8 ADD MLOAD PUSH1 0x4 DUP4 ADD SSTORE PUSH1 0xA0 SWAP1 SWAP7 ADD MLOAD PUSH1 0x5 SWAP1 SWAP2 ADD DUP1 SLOAD SWAP2 ISZERO ISZERO PUSH1 0xFF NOT SWAP3 DUP4 AND OR SWAP1 SSTORE DUP9 DUP4 MSTORE SWAP5 SWAP1 SWAP3 MSTORE SWAP2 SWAP1 SWAP2 KECCAK256 ADD DUP1 SLOAD SWAP1 SWAP2 AND SWAP1 SSTORE CALLVALUE DUP2 LT ISZERO PUSH2 0xAC4 JUMPI CALLER PUSH2 0x8FC PUSH2 0xA9D DUP4 CALLVALUE PUSH2 0x10EF JUMP JUMPDEST PUSH1 0x40 MLOAD DUP2 ISZERO SWAP1 SWAP3 MUL SWAP2 PUSH0 DUP2 DUP2 DUP2 DUP6 DUP9 DUP9 CALL SWAP4 POP POP POP POP ISZERO DUP1 ISZERO PUSH2 0xAC2 JUMPI RETURNDATASIZE PUSH0 DUP1 RETURNDATACOPY RETURNDATASIZE PUSH0 REVERT JUMPDEST POP JUMPDEST PUSH0 SLOAD PUSH1 0x40 MLOAD DUP5 DUP2 MSTORE CALLER SWAP2 PUSH1 0x1 PUSH1 0xC0 SHL SWAP1 DIV PUSH4 0xFFFFFFFF AND SWAP1 PUSH32 0x24C83A02AB404799EB65CD159AC9266AABCE842E658C2ECDD12173C403D4D353 SWAP1 PUSH1 0x20 ADD PUSH1 0x40 MLOAD DUP1 SWAP2 SUB SWAP1 LOG3 POP POP POP JUMP JUMPDEST CALLER PUSH0 SWAP1 DUP2 MSTORE PUSH1 0x2 PUSH1 0x20 MSTORE PUSH1 0x40 SWAP1 KECCAK256 SLOAD PUSH1 0x1 PUSH1 0x30 SHL SWAP1 DIV PUSH1 0xFF AND ISZERO PUSH2 0xB69 JUMPI PUSH1 0x40 MLOAD PUSH3 0x461BCD PUSH1 0xE5 SHL DUP2 MSTORE PUSH1 0x20 PUSH1 0x4 DUP3 ADD MSTORE PUSH1 0x12 PUSH1 0x24 DUP3 ADD MSTORE PUSH18 0x105B1C9958591E481C9959DA5CDD195C9959 PUSH1 0x72 SHL PUSH1 0x44 DUP3 ADD MSTORE PUSH1 0x64 ADD PUSH2 0x467 JUMP JUMPDEST PUSH2 0x12C DUP2 PUSH2 0xFFFF AND LT ISZERO DUP1 ISZERO PUSH2 0xB85 JUMPI POP PUSH2 0x352 DUP2 PUSH2 0xFFFF AND GT ISZERO JUMPDEST PUSH2 0xBC8 JUMPI PUSH1 0x40 MLOAD PUSH3 0x461BCD PUSH1 0xE5 SHL DUP2 MSTORE PUSH1 0x20 PUSH1 0x4 DUP3 ADD MSTORE PUSH1 0x14 PUSH1 0x24 DUP3 ADD MSTORE PUSH20 0x496E76616C6964206372656469742073636F7265 PUSH1 0x60 SHL PUSH1 0x44 DUP3 ADD MSTORE PUSH1 0x64 ADD PUSH2 0x467 JUMP JUMPDEST PUSH1 0x40 DUP1 MLOAD PUSH1 0x80 DUP2 ADD DUP3 MSTORE PUSH4 0xFFFFFFFF DUP5 DUP2 AND DUP1 DUP4 MSTORE PUSH2 0xFFFF DUP6 DUP2 AND PUSH1 0x20 DUP1 DUP7 ADD DUP3 DUP2 MSTORE PUSH1 0x1 DUP8 DUP10 ADD DUP2 DUP2 MSTORE TIMESTAMP PUSH1 0x60 DUP11 ADD SWAP1 DUP2 MSTORE CALLER PUSH0 DUP2 DUP2 MSTORE PUSH1 0x2 DUP8 MSTORE DUP13 SWAP1 KECCAK256 SWAP11 MLOAD DUP12 SLOAD SWAP6 MLOAD SWAP4 MLOAD ISZERO ISZERO PUSH1 0x1 PUSH1 0x30 SHL MUL PUSH7 0xFF000000000000 NOT SWAP5 SWAP1 SWAP10 AND PUSH5 0x100000000 MUL PUSH6 0xFFFFFFFFFFFF NOT SWAP1 SWAP7 AND SWAP11 AND SWAP10 SWAP1 SWAP10 OR SWAP4 SWAP1 SWAP4 OR AND SWAP5 SWAP1 SWAP5 OR DUP8 SSTORE MLOAD SWAP6 SWAP1 SWAP3 ADD SWAP5 SWAP1 SWAP5 SSTORE DUP5 MLOAD SWAP2 DUP3 MSTORE DUP2 ADD SWAP3 SWAP1 SWAP3 MSTORE SWAP2 PUSH32 0xA0A7336262B5B23B760EAD1DA5A4635D380F5215B36442D2D710FA93F36CE753 SWAP2 ADD PUSH2 0x587 JUMP JUMPDEST PUSH1 0x1 PUSH1 0x20 MSTORE PUSH0 SWAP1 DUP2 MSTORE PUSH1 0x40 SWAP1 KECCAK256 DUP1 SLOAD DUP2 SWAP1 PUSH2 0xC9E SWAP1 PUSH2 0xF5A JUMP JUMPDEST DUP1 PUSH1 0x1F ADD PUSH1 0x20 DUP1 SWAP2 DIV MUL PUSH1 0x20 ADD PUSH1 0x40 MLOAD SWAP1 DUP2 ADD PUSH1 0x40 MSTORE DUP1 SWAP3 SWAP2 SWAP1 DUP2 DUP2 MSTORE PUSH1 0x20 ADD DUP3 DUP1 SLOAD PUSH2 0xCCA SWAP1 PUSH2 0xF5A JUMP JUMPDEST DUP1 ISZERO PUSH2 0xD15 JUMPI DUP1 PUSH1 0x1F LT PUSH2 0xCEC JUMPI PUSH2 0x100 DUP1 DUP4 SLOAD DIV MUL DUP4 MSTORE SWAP2 PUSH1 0x20 ADD SWAP2 PUSH2 0xD15 JUMP JUMPDEST DUP3 ADD SWAP2 SWAP1 PUSH0 MSTORE PUSH1 0x20 PUSH0 KECCAK256 SWAP1 JUMPDEST DUP2 SLOAD DUP2 MSTORE SWAP1 PUSH1 0x1 ADD SWAP1 PUSH1 0x20 ADD DUP1 DUP4 GT PUSH2 0xCF8 JUMPI DUP3 SWAP1 SUB PUSH1 0x1F AND DUP3 ADD SWAP2 JUMPDEST POP POP POP POP PUSH1 0x1 DUP4 ADD SLOAD PUSH1 0x2 SWAP1 SWAP4 ADD SLOAD SWAP2 SWAP3 SWAP2 PUSH1 0xFF DUP2 AND SWAP2 POP PUSH2 0x100 SWAP1 DIV PUSH1 0x1 PUSH1 0x1 PUSH1 0xA0 SHL SUB AND DUP5 JUMP JUMPDEST PUSH0 PUSH1 0x20 DUP3 DUP5 SUB SLT ISZERO PUSH2 0xD4E JUMPI PUSH0 DUP1 REVERT JUMPDEST POP CALLDATALOAD SWAP2 SWAP1 POP JUMP JUMPDEST PUSH4 0x4E487B71 PUSH1 0xE0 SHL PUSH0 MSTORE PUSH1 0x41 PUSH1 0x4 MSTORE PUSH1 0x24 PUSH0 REVERT JUMPDEST PUSH0 DUP1 PUSH1 0x40 DUP4 DUP6 SUB SLT ISZERO PUSH2 0xD7A JUMPI PUSH0 DUP1 REVERT JUMPDEST DUP3 CALLDATALOAD PUSH8 0xFFFFFFFFFFFFFFFF DUP1 DUP3 GT ISZERO PUSH2 0xD91 JUMPI PUSH0 DUP1 REVERT JUMPDEST DUP2 DUP6 ADD SWAP2 POP DUP6 PUSH1 0x1F DUP4 ADD SLT PUSH2 0xDA4 JUMPI PUSH0 DUP1 REVERT JUMPDEST DUP2 CALLDATALOAD DUP2 DUP2 GT ISZERO PUSH2 0xDB6 JUMPI PUSH2 0xDB6 PUSH2 0xD55 JUMP JUMPDEST PUSH1 0x40 MLOAD PUSH1 0x1F DUP3 ADD PUSH1 0x1F NOT SWAP1 DUP2 AND PUSH1 0x3F ADD AND DUP2 ADD SWAP1 DUP4 DUP3 GT DUP2 DUP4 LT OR ISZERO PUSH2 0xDDE JUMPI PUSH2 0xDDE PUSH2 0xD55 JUMP JUMPDEST DUP2 PUSH1 0x40 MSTORE DUP3 DUP2 MSTORE DUP9 PUSH1 0x20 DUP5 DUP8 ADD ADD GT ISZERO PUSH2 0xDF6 JUMPI PUSH0 DUP1 REVERT JUMPDEST DUP3 PUSH1 0x20 DUP7 ADD PUSH1 0x20 DUP4 ADD CALLDATACOPY PUSH0 PUSH1 0x20 SWAP4 DUP3 ADD DUP5 ADD MSTORE SWAP9 SWAP7 SWAP1 SWAP2 ADD CALLDATALOAD SWAP7 POP POP POP POP POP POP JUMP JUMPDEST PUSH0 PUSH1 0x20 DUP3 DUP5 SUB SLT ISZERO PUSH2 0xE28 JUMPI PUSH0 DUP1 REVERT JUMPDEST DUP2 CALLDATALOAD PUSH1 0x1 PUSH1 0x1 PUSH1 0xA0 SHL SUB DUP2 AND DUP2 EQ PUSH2 0xE3E JUMPI PUSH0 DUP1 REVERT JUMPDEST SWAP4 SWAP3 POP POP POP JUMP JUMPDEST PUSH0 DUP1 PUSH1 0x40 DUP4 DUP6 SUB SLT ISZERO PUSH2 0xE56 JUMPI PUSH0 DUP1 REVERT JUMPDEST POP POP DUP1 CALLDATALOAD SWAP3 PUSH1 0x20 SWAP1 SWAP2 ADD CALLDATALOAD SWAP2 POP JUMP JUMPDEST PUSH0 DUP1 PUSH1 0x40 DUP4 DUP6 SUB SLT ISZERO PUSH2 0xE76 JUMPI PUSH0 DUP1 REVERT JUMPDEST DUP3 CALLDATALOAD PUSH4 0xFFFFFFFF DUP2 AND DUP2 EQ PUSH2 0xE89 JUMPI PUSH0 DUP1 REVERT JUMPDEST SWAP2 POP PUSH1 0x20 DUP4 ADD CALLDATALOAD PUSH2 0xFFFF DUP2 AND DUP2 EQ PUSH2 0xE9F JUMPI PUSH0 DUP1 REVERT JUMPDEST DUP1 SWAP2 POP POP SWAP3 POP SWAP3 SWAP1 POP JUMP JUMPDEST PUSH0 DUP2 MLOAD DUP1 DUP5 MSTORE PUSH0 JUMPDEST DUP2 DUP2 LT ISZERO PUSH2 0xECE JUMPI PUSH1 0x20 DUP2 DUP6 ADD DUP2 ADD MLOAD DUP7 DUP4 ADD DUP3 ADD MSTORE ADD PUSH2 0xEB2 JUMP JUMPDEST POP PUSH0 PUSH1 0x20 DUP3 DUP7 ADD ADD MSTORE PUSH1 0x20 PUSH1 0x1F NOT PUSH1 0x1F DUP4 ADD AND DUP6 ADD ADD SWAP2 POP POP SWAP3 SWAP2 POP POP JUMP JUMPDEST PUSH1 0x80 DUP2 MSTORE PUSH0 PUSH2 0xEFF PUSH1 0x80 DUP4 ADD DUP8 PUSH2 0xEAA JUMP JUMPDEST PUSH1 0x20 DUP4 ADD SWAP6 SWAP1 SWAP6 MSTORE POP SWAP2 ISZERO ISZERO PUSH1 0x40 DUP4 ADD MSTORE PUSH1 0x1 PUSH1 0x1 PUSH1 0xA0 SHL SUB AND PUSH1 0x60 SWAP1 SWAP2 ADD MSTORE SWAP2 SWAP1 POP JUMP JUMPDEST PUSH4 0x4E487B71 PUSH1 0xE0 SHL PUSH0 MSTORE PUSH1 0x11 PUSH1 0x4 MSTORE PUSH1 0x24 PUSH0 REVERT JUMPDEST PUSH0 PUSH4 0xFFFFFFFF DUP1 DUP4 AND DUP2 DUP2 SUB PUSH2 0xF50 JUMPI PUSH2 0xF50 PUSH2 0xF24 JUMP JUMPDEST PUSH1 0x1 ADD SWAP4 SWAP3 POP POP POP JUMP JUMPDEST PUSH1 0x1 DUP2 DUP2 SHR SWAP1 DUP3 AND DUP1 PUSH2 0xF6E JUMPI PUSH1 0x7F DUP3 AND SWAP2 POP JUMPDEST PUSH1 0x20 DUP3 LT DUP2 SUB PUSH2 0xF8C JUMPI PUSH4 0x4E487B71 PUSH1 0xE0 SHL PUSH0 MSTORE PUSH1 0x22 PUSH1 0x4 MSTORE PUSH1 0x24 PUSH0 REVERT JUMPDEST POP SWAP2 SWAP1 POP JUMP JUMPDEST PUSH1 0x1F DUP3 GT ISZERO PUSH2 0xFD9 JUMPI DUP1 PUSH0 MSTORE PUSH1 0x20 PUSH0 KECCAK256 PUSH1 0x1F DUP5 ADD PUSH1 0x5 SHR DUP2 ADD PUSH1 0x20 DUP6 LT ISZERO PUSH2 0xFB7 JUMPI POP DUP1 JUMPDEST PUSH1 0x1F DUP5 ADD PUSH1 0x5 SHR DUP3 ADD SWAP2 POP JUMPDEST DUP2 DUP2 LT ISZERO PUSH2 0xFD6 JUMPI PUSH0 DUP2 SSTORE PUSH1 0x1 ADD PUSH2 0xFC3 JUMP JUMPDEST POP POP JUMPDEST POP POP POP JUMP JUMPDEST DUP2 MLOAD PUSH8 0xFFFFFFFFFFFFFFFF DUP2 GT ISZERO PUSH2 0xFF8 JUMPI PUSH2 0xFF8 PUSH2 0xD55 JUMP JUMPDEST PUSH2 0x100C DUP2 PUSH2 0x1006 DUP5 SLOAD PUSH2 0xF5A JUMP JUMPDEST DUP5 PUSH2 0xF92 JUMP JUMPDEST PUSH1 0x20 DUP1 PUSH1 0x1F DUP4 GT PUSH1 0x1 DUP2 EQ PUSH2 0x103F JUMPI PUSH0 DUP5 ISZERO PUSH2 0x1028 JUMPI POP DUP6 DUP4 ADD MLOAD JUMPDEST PUSH0 NOT PUSH1 0x3 DUP7 SWAP1 SHL SHR NOT AND PUSH1 0x1 DUP6 SWAP1 SHL OR DUP6 SSTORE PUSH2 0x1096 JUMP JUMPDEST PUSH0 DUP6 DUP2 MSTORE PUSH1 0x20 DUP2 KECCAK256 PUSH1 0x1F NOT DUP7 AND SWAP2 JUMPDEST DUP3 DUP2 LT ISZERO PUSH2 0x106D JUMPI DUP9 DUP7 ADD MLOAD DUP3 SSTORE SWAP5 DUP5 ADD SWAP5 PUSH1 0x1 SWAP1 SWAP2 ADD SWAP1 DUP5 ADD PUSH2 0x104E JUMP JUMPDEST POP DUP6 DUP3 LT ISZERO PUSH2 0x108A JUMPI DUP8 DUP6 ADD MLOAD PUSH0 NOT PUSH1 0x3 DUP9 SWAP1 SHL PUSH1 0xF8 AND SHR NOT AND DUP2 SSTORE JUMPDEST POP POP PUSH1 0x1 DUP5 PUSH1 0x1 SHL ADD DUP6 SSTORE JUMPDEST POP POP POP POP POP POP JUMP JUMPDEST PUSH1 0x40 DUP2 MSTORE PUSH0 PUSH2 0x10B0 PUSH1 0x40 DUP4 ADD DUP6 PUSH2 0xEAA JUMP JUMPDEST SWAP1 POP DUP3 PUSH1 0x20 DUP4 ADD MSTORE SWAP4 SWAP3 POP POP POP JUMP JUMPDEST DUP1 DUP3 MUL DUP2 ISZERO DUP3 DUP3 DIV DUP5 EQ OR PUSH2 0x10D6 JUMPI PUSH2 0x10D6 PUSH2 0xF24 JUMP JUMPDEST SWAP3 SWAP2 POP POP JUMP JUMPDEST DUP1 DUP3 ADD DUP1 DUP3 GT ISZERO PUSH2 0x10D6 JUMPI PUSH2 0x10D6 PUSH2 0xF24 JUMP JUMPDEST DUP2 DUP2 SUB DUP2 DUP2 GT ISZERO PUSH2 0x10D6 JUMPI PUSH2 0x10D6 PUSH2 0xF24 JUMP INVALID LOG1 PUSH5 0x736F6C6343 STOP ADDMOD XOR STOP EXP "},"gasEstimates":{"creation":{"codeDepositCost":"873400","executionCost":"25174","totalCost":"898574"},"external":{"addParkingSpot(string,uint256)":"infinite","completeReservation(uint256)":"infinite","getStatistics()":"2432","getUserInfo(address)":"4935","isSpotAvailable(uint256)":"4671","makeReservation(uint256,uint256)":"infinite","owner()":"2380","parkingSpots(uint256)":"infinite","registerUser(uint32,uint16)":"51041","reservationCounter()":"2351","reservations(uint256)":"13162","totalSpots()":"2395","users(address)":"4766"}},"methodIdentifiers":{"addParkingSpot(string,uint256)":"21fa7407","completeReservation(uint256)":"6dea62c5","getStatistics()":"372d6b27","getUserInfo(address)":"6386c1c7","isSpotAvailable(uint256)":"8cf66f39","makeReservation(uint256,uint256)":"b37a87eb","owner()":"8da5cb5b","parkingSpots(uint256)":"f5defcd3","registerUser(uint32,uint16)":"ba747e1e","reservationCounter()":"156bdea1","reservations(uint256)":"067cf832","totalSpots()":"8df71743","users(address)":"a87430ba"}},"storageLayout":{"storage":[{"astId":4,"contract":"contracts/ParkingReservation.sol:ParkingReservation","label":"owner","offset":0,"slot":"0","type":"t_address"},{"astId":6,"contract":"contracts/ParkingReservation.sol:ParkingReservation","label":"totalSpots","offset":20,"slot":"0","type":"t_uint32"},{"astId":8,"contract":"contracts/ParkingReservation.sol:ParkingReservation","label":"reservationCounter","offset":24,"slot":"0","type":"t_uint32"},{"astId":44,"contract":"contracts/ParkingReservation.sol:ParkingReservation","label":"parkingSpots","offset":0,"slot":"1","type":"t_mapping(t_uint256,t_struct(ParkingSpot)17_storage)"},{"astId":49,"contract":"contracts/ParkingReservation.sol:ParkingReservation","label":"users","offset":0,"slot":"2","type":"t_mapping(t_address,t_struct(User)26_storage)"},{"astId":54,"contract":"contracts/ParkingReservation.sol:ParkingReservation","label":"reservations","offset":0,"slot":"3","type":"t_mapping(t_uint256,t_struct(Reservation)39_storage)"}],"types":{"t_address":{"encoding":"inplace","label":"address","numberOfBytes":"20"},"t_bool":{"encoding":"inplace","label":"bool","numberOfBytes":"1"},"t_mapping(t_address,t_struct(User)26_storage)":{"encoding":"mapping","key":"t_address","label":"mapping(address => struct ParkingReservation.User)","numberOfBytes":"32","value":"t_struct(User)26_storage"},"t_mapping(t_uint256,t_struct(ParkingSpot)17_storage)":{"encoding":"mapping","key":"t_uint256","label":"mapping(uint256 => struct ParkingReservation.ParkingSpot)","numberOfBytes":"32","value":"t_struct(ParkingSpot)17_storage"},"t_mapping(t_uint256,t_struct(Reservation)39_storage)":{"encoding":"mapping","key":"t_uint256","label":"mapping(uint256 => struct ParkingReservation.Reservation)","numberOfBytes":"32","value":"t_struct(Reservation)39_storage"},"t_string_storage":{"encoding":"bytes","label":"string","numberOfBytes":"32"},"t_struct(ParkingSpot)17_storage":{"encoding":"inplace","label":"struct ParkingReservation.ParkingSpot","members":[{"astId":10,"contract":"contracts/ParkingReservation.sol:ParkingReservation","label":"location","offset":0,"slot":"0","type":"t_string_storage"},{"astId":12,"contract":"contracts/ParkingReservation.sol:ParkingReservation","label":"pricePerHour","offset":0,"slot":"1","type":"t_uint256"},{"astId":14,"contract":"contracts/ParkingReservation.sol:ParkingReservation","label":"isAvailable","offset":0,"slot":"2","type":"t_bool"},{"astId":16,"contract":"contracts/ParkingReservation.sol:ParkingReservation","label":"spotOwner","offset":1,"slot":"2","type":"t_address"}],"numberOfBytes":"96"},"t_struct(Reservation)39_storage":{"encoding":"inplace","label":"struct ParkingReservation.Reservation","members":[{"astId":28,"contract":"contracts/ParkingReservation.sol:ParkingReservation","label":"user","offset":0,"slot":"0","type":"t_address"},{"astId":30,"contract":"contracts/ParkingReservation.sol:ParkingReservation","label":"spotId","offset":0,"slot":"1","type":"t_uint256"},{"astId":32,"contract":"contracts/ParkingReservation.sol:ParkingReservation","label":"startTime","offset":0,"slot":"2","type":"t_uint256"},{"astId":34,"contract":"contracts/ParkingReservation.sol:ParkingReservation","label":"endTime","offset":0,"slot":"3","type":"t_uint256"},{"astId":36,"contract":"contracts/ParkingReservation.sol:ParkingReservation","label":"totalPrice","offset":0,"slot":"4","type":"t_uint256"},{"astId":38,"contract":"contracts/ParkingReservation.sol:ParkingReservation","label":"isCompleted","offset":0,"slot":"5","type":"t_bool"}],"numberOfBytes":"192"},"t_struct(User)26_storage":{"encoding":"inplace","label":"struct ParkingReservation.User","members":[{"astId":19,"contract":"contracts/ParkingReservation.sol:ParkingReservation","label":"userId","offset":0,"slot":"0","type":"t_uint32"},{"astId":21,"contract":"contracts/ParkingReservation.sol:ParkingReservation","label":"creditScore","offset":4,"slot":"0","type":"t_uint16"},{"astId":23,"contract":"contracts/ParkingReservation.sol:ParkingReservation","label":"isRegistered","offset":6,"slot":"0","type":"t_bool"},{"astId":25,"contract":"contracts/ParkingReservation.sol:ParkingReservation","label":"registrationTime","offset":0,"slot":"1","type":"t_uint256"}],"numberOfBytes":"64"},"t_uint16":{"encoding":"inplace","label":"uint16","numberOfBytes":"2"},"t_uint256":{"encoding":"inplace","label":"uint256","numberOfBytes":"32"},"t_uint32":{"encoding":"inplace","label":"uint32","numberOfBytes":"4"}}},"userdoc":{"kind":"user","methods":{"addParkingSpot(string,uint256)":{"notice":"Add a new parking spot (owner only)"},"completeReservation(uint256)":{"notice":"Complete a reservation"},"getStatistics()":{"notice":"Get system statistics"},"getUserInfo(address)":{"notice":"Get user info"},"isSpotAvailable(uint256)":{"notice":"Check if a spot is available"},"makeReservation(uint256,uint256)":{"notice":"Make a reservation"},"registerUser(uint32,uint16)":{"notice":"Register a new user"}},"notice":"Simplified parking reservation system (without FHE for actual deployment)","version":1}}}}