{
  "_format": "hh-sol-artifact-1",
  "contractName": "ParkingReservation",
  "sourceName": "contracts/ParkingReservation.sol",
  "abi": [
    {
      "inputs": [],
      "stateMutability": "nonpayable",
      "type": "constructor"
    },
    {
      "anonymous": false,
      "inputs": [
        {
          "indexed": true,
          "internalType": "uint256",
          "name": "spotId",
          "type": "uint256"
        },
        {
          "indexed": false,
          "internalType": "string",
          "name": "location",
          "type": "string"
        },
        {
          "indexed": false,
          "internalType": "uint256",
          "name": "pricePerHour",
          "type": "uint256"
        }
      ],
      "name": "ParkingSpotAdded",
      "type": "event"
    },
    {
      "anonymous": false,
      "inputs": [
        {
          "indexed": true,
          "internalType": "uint256",
          "name": "reservationId",
          "type": "uint256"
        }
      ],
      "name": "ReservationCompleted",
      "type": "event"
    },
    {
      "anonymous": false,
      "inputs": [
        {
          "indexed": true,
          "internalType": "uint256",
          "name": "reservationId",
          "type": "uint256"
        },
        {
          "indexed": true,
          "internalType": "address",
          "name": "user",
          "type": "address"
        },
        {
          "indexed": false,
          "internalType": "uint256",
          "name": "spotId",
          "type": "uint256"
        }
      ],
      "name": "ReservationCreated",
      "type": "event"
    },
    {
      "anonymous": false,
      "inputs": [
        {
          "indexed": true,
          "internalType": "address",
          "name": "user",
          "type": "address"
        },
        {
          "indexed": false,
          "internalType": "uint32",
          "name": "userId",
          "type": "uint32"
        },
        {
          "indexed": false,
          "internalType": "uint16",
          "name": "creditScore",
          "type": "uint16"
        }
      ],
      "name": "UserRegistered",
      "type": "event"
    },
    {
      "inputs": [
        {
          "internalType": "string",
          "name": "location",
          "type": "string"
        },
        {
          "internalType": "uint256",
          "name": "pricePerHour",
          "type": "uint256"
        }
      ],
      "name": "addParkingSpot",
      "outputs": [],
      "stateMutability": "nonpayable",
      "type": "function"
    },
    {
      "inputs": [
        {
          "internalType": "uint256",
          "name": "reservationId",
          "type": "uint256"
        }
      ],
      "name": "completeReservation",
      "outputs": [],
      "stateMutability": "nonpayable",
      "type": "function"
    },
    {
      "inputs": [],
      "name": "getStatistics",
      "outputs": [
        {
          "internalType": "uint32",
          "name": "_totalSpots",
          "type": "uint32"
        },
        {
          "internalType": "uint32",
          "name": "_totalReservations",
          "type": "uint32"
        },
        {
          "internalType": "uint256",
          "name": "_timestamp",
          "type": "uint256"
        }
      ],
      "stateMutability": "view",
      "type": "function"
    },
    {
      "inputs": [
        {
          "internalType": "address",
          "name": "userAddress",
          "type": "address"
        }
      ],
      "name": "getUserInfo",
      "outputs": [
        {
          "internalType": "uint32",
          "name": "userId",
          "type": "uint32"
        },
        {
          "internalType": "uint16",
          "name": "creditScore",
          "type": "uint16"
        },
        {
          "internalType": "bool",
          "name": "isRegistered",
          "type": "bool"
        }
      ],
      "stateMutability": "view",
      "type": "function"
    },
    {
      "inputs": [
        {
          "internalType": "uint256",
          "name": "spotId",
          "type": "uint256"
        }
      ],
      "name": "isSpotAvailable",
      "outputs": [
        {
          "internalType": "bool",
          "name": "available",
          "type": "bool"
        }
      ],
      "stateMutability": "view",
      "type": "function"
    },
    {
      "inputs": [
        {
          "internalType": "uint256",
          "name": "spotId",
          "type": "uint256"
        },
        {
          "internalType": "uint256",
          "name": "durationHours",
          "type": "uint256"
        }
      ],
      "name": "makeReservation",
      "outputs": [],
      "stateMutability": "payable",
      "type": "function"
    },
    {
      "inputs": [],
      "name": "owner",
      "outputs": [
        {
          "internalType": "address",
          "name": "",
          "type": "address"
        }
      ],
      "stateMutability": "view",
      "type": "function"
    },
    {
      "inputs": [
        {
          "internalType": "uint256",
          "name": "",
          "type": "uint256"
        }
      ],
      "name": "parkingSpots",
      "outputs": [
        {
          "internalType": "string",
          "name": "location",
          "type": "string"
        },
        {
          "internalType": "uint256",
          "name": "pricePerHour",
          "type": "uint256"
        },
        {
          "internalType": "bool",
          "name": "isAvailable",
          "type": "bool"
        },
        {
          "internalType": "address",
          "name": "spotOwner",
          "type": "address"
        }
      ],
      "stateMutability": "view",
      "type": "function"
    },
    {
      "inputs": [
        {
          "internalType": "uint32",
          "name": "userId",
          "type": "uint32"
        },
        {
          "internalType": "uint16",
          "name": "creditScore",
          "type": "uint16"
        }
      ],
      "name": "registerUser",
      "outputs": [],
      "stateMutability": "nonpayable",
      "type": "function"
    },
    {
      "inputs": [],
      "name": "reservationCounter",
      "outputs": [
        {
          "internalType": "uint32",
          "name": "",
          "type": "uint32"
        }
      ],
      "stateMutability": "view",
      "type": "function"
    },
    {
      "inputs": [
        {
          "internalType": "uint256",
          "name": "",
          "type": "uint256"
        }
      ],
      "name": "reservations",
      "outputs": [
        {
          "internalType": "address",
          "name": "user",
          "type": "address"
        },
        {
          "internalType": "uint256",
          "name": "spotId",
          "type": "uint256"
        },
        {
          "internalType": "uint256",
          "name": "startTime",
          "type": "uint256"
        },
        {
          "internalType": "uint256",
          "name": "endTime",
          "type": "uint256"
        },
        {
          "internalType": "uint256",
          "name": "totalPrice",
          "type": "uint256"
        },
        {
          "internalType": "bool",
          "name": "isCompleted",
          "type": "bool"
        }
      ],
      "stateMutability": "view",
      "type": "function"
    },
    {
      "inputs": [],
      "name": "totalSpots",
      "outputs": [
        {
          "internalType": "uint32",
          "name": "",
          "type": "uint32"
        }
      ],
      "stateMutability": "view",
      "type": "function"
    },
    {
      "inputs": [
        {
          "internalType": "address",
          "name": "",
          "type": "address"
        }
      ],
      "name": "users",
      "outputs": [
        {
          "internalType": "uint32",
          "name": "userId",
          "type": "uint32"
        },
        {
          "internalType": "uint16",
          "name": "creditScore",
          "type": "uint16"
        },
        {
          "internalType": "bool",
          "name": "isRegistered",
          "type": "bool"
        },
        {
          "internalType": "uint256",
          "name": "registrationTime",
          "type": "uint256"
        }
      ],
      "stateMutability": "view",
      "type": "function"
    }
  ],
  "bytecode": "0x608060405234801561000f575f80fd5b505f8054600160a01b600160e01b031933166001600160e01b031990911617905561110f8061003d5f395ff3fe6080604052600436106100bf575f3560e01c80638cf66f391161007c578063a87430ba11610057578063a87430ba14610342578063b37a87eb146103c5578063ba747e1e146103d8578063f5defcd3146103f7575f80fd5b80638cf66f39146102bb5780638da5cb5b146102ea5780638df7174314610320575f80fd5b8063067cf832146100c3578063156bdea11461015f57806321fa740714610196578063372d6b27146101b75780636386c1c7146101f65780636dea62c51461029c575b5f80fd5b3480156100ce575f80fd5b506101216100dd366004610d3e565b600360208190525f91825260409091208054600182015460028301549383015460048401546005909401546001600160a01b03909316949193919290919060ff1686565b604080516001600160a01b03909716875260208701959095529385019290925260608401526080830152151560a082015260c0015b60405180910390f35b34801561016a575f80fd5b505f5461018190600160c01b900463ffffffff1681565b60405163ffffffff9091168152602001610156565b3480156101a1575f80fd5b506101b56101b0366004610d69565b610426565b005b3480156101c2575f80fd5b505f546040805163ffffffff600160a01b840481168252600160c01b90930490921660208301524290820152606001610156565b348015610201575f80fd5b50610275610210366004610e18565b6001600160a01b03165f908152600260209081526040918290208251608081018452815463ffffffff8116808352640100000000820461ffff16948301859052600160301b90910460ff16151594820185905260019092015460609091015292909190565b6040805163ffffffff909416845261ffff9092166020840152151590820152606001610156565b3480156102a7575f80fd5b506101b56102b6366004610d3e565b610593565b3480156102c6575f80fd5b506102da6102d5366004610d3e565b610746565b6040519015158152602001610156565b3480156102f5575f80fd5b505f54610308906001600160a01b031681565b6040516001600160a01b039091168152602001610156565b34801561032b575f80fd5b505f5461018190600160a01b900463ffffffff1681565b34801561034d575f80fd5b5061039561035c366004610e18565b60026020525f90815260409020805460019091015463ffffffff821691640100000000810461ffff1691600160301b90910460ff169084565b6040805163ffffffff909516855261ffff9093166020850152901515918301919091526060820152608001610156565b6101b56103d3366004610e45565b6107ba565b3480156103e3575f80fd5b506101b56103f2366004610e65565b610b0e565b348015610402575f80fd5b50610416610411366004610d3e565b610c84565b6040516101569493929190610eed565b5f546001600160a01b031633146104705760405162461bcd60e51b81526020600482015260096024820152682737ba1037bbb732b960b91b60448201526064015b60405180910390fd5b5f8054600160a01b900463ffffffff1690601461048c83610f38565b82546101009290920a63ffffffff81810219909316918316021790915560408051608081018252858152602080820186905260018284018190523360608401525f8054600160a01b900490951685529052912081519192509081906104f19082610fde565b5060208201516001820155604080830151600290920180546060909401516001600160a81b0319909416921515610100600160a81b031916929092176101006001600160a01b03909416939093029290921790555f549051600160a01b90910463ffffffff16907f2a4d7c20d0e0546fea12c8aae08d00efce1d9dbceb9d4b06f69bb214783edded90610587908590859061109e565b60405180910390a25050565b5f811180156105b057505f54600160c01b900463ffffffff168111155b6105f55760405162461bcd60e51b8152602060048201526016602482015275125b9d985b1a59081c995cd95c9d985d1a5bdb88125160521b6044820152606401610467565b5f81815260036020526040902080546001600160a01b031633146106525760405162461bcd60e51b81526020600482015260146024820152732737ba103cb7bab9103932b9b2b93b30ba34b7b760611b6044820152606401610467565b600581015460ff161561069b5760405162461bcd60e51b8152602060048201526011602482015270105b1c9958591e4818dbdb5c1b195d1959607a1b6044820152606401610467565b600581018054600160ff19918216811790925581830180545f90815260208490526040808220600290810180549095169095179093559054815281812090920154600484015491516101009091046001600160a01b0316926108fc831502929190818181858888f19350505050158015610717573d5f803e3d5ffd5b5060405182907fed4cc2085fc19cdf8cedade7c5dc389eb82f87e5dff2fd2b253a3847aef85156905f90a25050565b5f808211801561076457505f54600160a01b900463ffffffff168211155b6107a25760405162461bcd60e51b815260206004820152600f60248201526e125b9d985b1a59081cdc1bdd081251608a1b6044820152606401610467565b505f9081526001602052604090206002015460ff1690565b335f90815260026020526040902054600160301b900460ff166108105760405162461bcd60e51b815260206004820152600e60248201526d139bdd081c9959da5cdd195c995960921b6044820152606401610467565b5f8211801561082d57505f54600160a01b900463ffffffff168211155b61086b5760405162461bcd60e51b815260206004820152600f60248201526e125b9d985b1a59081cdc1bdd081251608a1b6044820152606401610467565b5f8281526001602052604090206002015460ff166108c05760405162461bcd60e51b815260206004820152601260248201527153706f74206e6f7420617661696c61626c6560701b6044820152606401610467565b5f81116109025760405162461bcd60e51b815260206004820152601060248201526f24b73b30b634b210323ab930ba34b7b760811b6044820152606401610467565b5f8281526001602081905260408220015461091e9083906110bf565b9050803410156109675760405162461bcd60e51b8152602060048201526014602482015273125b9cdd59999a58da595b9d081c185e5b595b9d60621b6044820152606401610467565b5f8054600160c01b900463ffffffff1690601861098383610f38565b91906101000a81548163ffffffff021916908363ffffffff160217905550506040518060c00160405280336001600160a01b0316815260200184815260200142815260200183610e106109d691906110bf565b6109e090426110dc565b815260208082018490525f6040928301819052805463ffffffff600160c01b9091041681526003808352838220855181546001600160a01b039091166001600160a01b031990911617815585840151600182810191909155868601516002808401919091556060880151938301939093556080870151600483015560a0909601516005909101805491151560ff199283161790558883529490925291909120018054909116905534811015610ac457336108fc610a9d83346110ef565b6040518115909202915f818181858888f19350505050158015610ac2573d5f803e3d5ffd5b505b5f546040518481523391600160c01b900463ffffffff16907f24c83a02ab404799eb65cd159ac9266aabce842e658c2ecdd12173c403d4d3539060200160405180910390a3505050565b335f90815260026020526040902054600160301b900460ff1615610b695760405162461bcd60e51b8152602060048201526012602482015271105b1c9958591e481c9959da5cdd195c995960721b6044820152606401610467565b61012c8161ffff1610158015610b8557506103528161ffff1611155b610bc85760405162461bcd60e51b8152602060048201526014602482015273496e76616c6964206372656469742073636f726560601b6044820152606401610467565b6040805160808101825263ffffffff84811680835261ffff858116602080860182815260018789018181524260608a01908152335f818152600287528c90209a518b54955193511515600160301b0266ff00000000000019949099166401000000000265ffffffffffff199096169a169990991793909317169490941787555195909201949094558451918252810192909252917fa0a7336262b5b23b760ead1da5a4635d380f5215b36442d2d710fa93f36ce7539101610587565b60016020525f9081526040902080548190610c9e90610f5a565b80601f0160208091040260200160405190810160405280929190818152602001828054610cca90610f5a565b8015610d155780601f10610cec57610100808354040283529160200191610d15565b820191905f5260205f20905b815481529060010190602001808311610cf857829003601f168201915b50505050600183015460029093015491929160ff8116915061010090046001600160a01b031684565b5f60208284031215610d4e575f80fd5b5035919050565b634e487b7160e01b5f52604160045260245ffd5b5f8060408385031215610d7a575f80fd5b823567ffffffffffffffff80821115610d91575f80fd5b818501915085601f830112610da4575f80fd5b813581811115610db657610db6610d55565b604051601f8201601f19908116603f01168101908382118183101715610dde57610dde610d55565b81604052828152886020848701011115610df6575f80fd5b826020860160208301375f602093820184015298969091013596505050505050565b5f60208284031215610e28575f80fd5b81356001600160a01b0381168114610e3e575f80fd5b9392505050565b5f8060408385031215610e56575f80fd5b50508035926020909101359150565b5f8060408385031215610e76575f80fd5b823563ffffffff81168114610e89575f80fd5b9150602083013561ffff81168114610e9f575f80fd5b809150509250929050565b5f81518084525f5b81811015610ece57602081850181015186830182015201610eb2565b505f602082860101526020601f19601f83011685010191505092915050565b608081525f610eff6080830187610eaa565b60208301959095525091151560408301526001600160a01b0316606090910152919050565b634e487b7160e01b5f52601160045260245ffd5b5f63ffffffff808316818103610f5057610f50610f24565b6001019392505050565b600181811c90821680610f6e57607f821691505b602082108103610f8c57634e487b7160e01b5f52602260045260245ffd5b50919050565b601f821115610fd957805f5260205f20601f840160051c81016020851015610fb75750805b601f840160051c820191505b81811015610fd6575f8155600101610fc3565b50505b505050565b815167ffffffffffffffff811115610ff857610ff8610d55565b61100c816110068454610f5a565b84610f92565b602080601f83116001811461103f575f84156110285750858301515b5f19600386901b1c1916600185901b178555611096565b5f85815260208120601f198616915b8281101561106d5788860151825594840194600190910190840161104e565b508582101561108a57878501515f19600388901b60f8161c191681555b505060018460011b0185555b505050505050565b604081525f6110b06040830185610eaa565b90508260208301529392505050565b80820281158282048414176110d6576110d6610f24565b92915050565b808201808211156110d6576110d6610f24565b818103818111156110d6576110d6610f2456fea164736f6c6343000818000a",
  "linkReferences": {},
  "deployedLinkReferences": {}
}